{
  "contractName": "StarNotary",
  "abi": [
    {
      "inputs": [],
      "stateMutability": "nonpayable",
      "type": "constructor"
    },
    {
      "anonymous": false,
      "inputs": [
        {
          "indexed": true,
          "internalType": "address",
          "name": "owner",
          "type": "address"
        },
        {
          "indexed": true,
          "internalType": "address",
          "name": "approved",
          "type": "address"
        },
        {
          "indexed": true,
          "internalType": "uint256",
          "name": "tokenId",
          "type": "uint256"
        }
      ],
      "name": "Approval",
      "type": "event"
    },
    {
      "anonymous": false,
      "inputs": [
        {
          "indexed": true,
          "internalType": "address",
          "name": "owner",
          "type": "address"
        },
        {
          "indexed": true,
          "internalType": "address",
          "name": "operator",
          "type": "address"
        },
        {
          "indexed": false,
          "internalType": "bool",
          "name": "approved",
          "type": "bool"
        }
      ],
      "name": "ApprovalForAll",
      "type": "event"
    },
    {
      "anonymous": false,
      "inputs": [
        {
          "indexed": true,
          "internalType": "address",
          "name": "from",
          "type": "address"
        },
        {
          "indexed": true,
          "internalType": "address",
          "name": "to",
          "type": "address"
        },
        {
          "indexed": true,
          "internalType": "uint256",
          "name": "tokenId",
          "type": "uint256"
        }
      ],
      "name": "Transfer",
      "type": "event"
    },
    {
      "inputs": [
        {
          "internalType": "address",
          "name": "to",
          "type": "address"
        },
        {
          "internalType": "uint256",
          "name": "tokenId",
          "type": "uint256"
        }
      ],
      "name": "approve",
      "outputs": [],
      "stateMutability": "nonpayable",
      "type": "function"
    },
    {
      "inputs": [
        {
          "internalType": "address",
          "name": "owner",
          "type": "address"
        }
      ],
      "name": "balanceOf",
      "outputs": [
        {
          "internalType": "uint256",
          "name": "",
          "type": "uint256"
        }
      ],
      "stateMutability": "view",
      "type": "function",
      "constant": true
    },
    {
      "inputs": [
        {
          "internalType": "uint256",
          "name": "tokenId",
          "type": "uint256"
        }
      ],
      "name": "getApproved",
      "outputs": [
        {
          "internalType": "address",
          "name": "",
          "type": "address"
        }
      ],
      "stateMutability": "view",
      "type": "function",
      "constant": true
    },
    {
      "inputs": [
        {
          "internalType": "address",
          "name": "owner",
          "type": "address"
        },
        {
          "internalType": "address",
          "name": "operator",
          "type": "address"
        }
      ],
      "name": "isApprovedForAll",
      "outputs": [
        {
          "internalType": "bool",
          "name": "",
          "type": "bool"
        }
      ],
      "stateMutability": "view",
      "type": "function",
      "constant": true
    },
    {
      "inputs": [],
      "name": "name",
      "outputs": [
        {
          "internalType": "string",
          "name": "",
          "type": "string"
        }
      ],
      "stateMutability": "view",
      "type": "function",
      "constant": true
    },
    {
      "inputs": [
        {
          "internalType": "uint256",
          "name": "tokenId",
          "type": "uint256"
        }
      ],
      "name": "ownerOf",
      "outputs": [
        {
          "internalType": "address",
          "name": "",
          "type": "address"
        }
      ],
      "stateMutability": "view",
      "type": "function",
      "constant": true
    },
    {
      "inputs": [
        {
          "internalType": "address",
          "name": "from",
          "type": "address"
        },
        {
          "internalType": "address",
          "name": "to",
          "type": "address"
        },
        {
          "internalType": "uint256",
          "name": "tokenId",
          "type": "uint256"
        }
      ],
      "name": "safeTransferFrom",
      "outputs": [],
      "stateMutability": "nonpayable",
      "type": "function"
    },
    {
      "inputs": [
        {
          "internalType": "address",
          "name": "from",
          "type": "address"
        },
        {
          "internalType": "address",
          "name": "to",
          "type": "address"
        },
        {
          "internalType": "uint256",
          "name": "tokenId",
          "type": "uint256"
        },
        {
          "internalType": "bytes",
          "name": "_data",
          "type": "bytes"
        }
      ],
      "name": "safeTransferFrom",
      "outputs": [],
      "stateMutability": "nonpayable",
      "type": "function"
    },
    {
      "inputs": [
        {
          "internalType": "address",
          "name": "operator",
          "type": "address"
        },
        {
          "internalType": "bool",
          "name": "approved",
          "type": "bool"
        }
      ],
      "name": "setApprovalForAll",
      "outputs": [],
      "stateMutability": "nonpayable",
      "type": "function"
    },
    {
      "inputs": [
        {
          "internalType": "uint256",
          "name": "",
          "type": "uint256"
        }
      ],
      "name": "starsForSale",
      "outputs": [
        {
          "internalType": "uint256",
          "name": "",
          "type": "uint256"
        }
      ],
      "stateMutability": "view",
      "type": "function",
      "constant": true
    },
    {
      "inputs": [
        {
          "internalType": "bytes4",
          "name": "interfaceId",
          "type": "bytes4"
        }
      ],
      "name": "supportsInterface",
      "outputs": [
        {
          "internalType": "bool",
          "name": "",
          "type": "bool"
        }
      ],
      "stateMutability": "view",
      "type": "function",
      "constant": true
    },
    {
      "inputs": [],
      "name": "symbol",
      "outputs": [
        {
          "internalType": "string",
          "name": "",
          "type": "string"
        }
      ],
      "stateMutability": "view",
      "type": "function",
      "constant": true
    },
    {
      "inputs": [
        {
          "internalType": "uint256",
          "name": "",
          "type": "uint256"
        }
      ],
      "name": "tokenIdToStarInfo",
      "outputs": [
        {
          "internalType": "string",
          "name": "name",
          "type": "string"
        }
      ],
      "stateMutability": "view",
      "type": "function",
      "constant": true
    },
    {
      "inputs": [
        {
          "internalType": "uint256",
          "name": "tokenId",
          "type": "uint256"
        }
      ],
      "name": "tokenURI",
      "outputs": [
        {
          "internalType": "string",
          "name": "",
          "type": "string"
        }
      ],
      "stateMutability": "view",
      "type": "function",
      "constant": true
    },
    {
      "inputs": [
        {
          "internalType": "address",
          "name": "from",
          "type": "address"
        },
        {
          "internalType": "address",
          "name": "to",
          "type": "address"
        },
        {
          "internalType": "uint256",
          "name": "tokenId",
          "type": "uint256"
        }
      ],
      "name": "transferFrom",
      "outputs": [],
      "stateMutability": "nonpayable",
      "type": "function"
    },
    {
      "inputs": [
        {
          "internalType": "string",
          "name": "_name",
          "type": "string"
        },
        {
          "internalType": "uint256",
          "name": "_tokenId",
          "type": "uint256"
        }
      ],
      "name": "createStar",
      "outputs": [],
      "stateMutability": "nonpayable",
      "type": "function"
    },
    {
      "inputs": [
        {
          "internalType": "uint256",
          "name": "_tokenId",
          "type": "uint256"
        },
        {
          "internalType": "uint256",
          "name": "_price",
          "type": "uint256"
        }
      ],
      "name": "putStarUpForSale",
      "outputs": [],
      "stateMutability": "nonpayable",
      "type": "function"
    },
    {
      "inputs": [
        {
          "internalType": "uint256",
          "name": "_tokenId",
          "type": "uint256"
        }
      ],
      "name": "buyStar",
      "outputs": [],
      "stateMutability": "payable",
      "type": "function",
      "payable": true
    },
    {
      "inputs": [
        {
          "internalType": "uint256",
          "name": "_tokenId",
          "type": "uint256"
        }
      ],
      "name": "lookUptokenIdToStarInfo",
      "outputs": [
        {
          "internalType": "string",
          "name": "",
          "type": "string"
        }
      ],
      "stateMutability": "view",
      "type": "function",
      "constant": true
    },
    {
      "inputs": [
        {
          "internalType": "uint256",
          "name": "_tokenId1",
          "type": "uint256"
        },
        {
          "internalType": "uint256",
          "name": "_tokenId2",
          "type": "uint256"
        }
      ],
      "name": "exchangeStars",
      "outputs": [],
      "stateMutability": "nonpayable",
      "type": "function"
    },
    {
      "inputs": [
        {
          "internalType": "address",
          "name": "_to1",
          "type": "address"
        },
        {
          "internalType": "uint256",
          "name": "_tokenId",
          "type": "uint256"
        }
      ],
      "name": "transferStar",
      "outputs": [],
      "stateMutability": "nonpayable",
      "type": "function"
    }
  ],
  "bytecode": "0x60806040523480156200001157600080fd5b506040518060400160405280600b81526020017f53746172727920436f696e0000000000000000000000000000000000000000008152506040518060400160405280600381526020017f5354520000000000000000000000000000000000000000000000000000000000815250816000908051906020019062000096929190620000b8565b508060019080519060200190620000af929190620000b8565b505050620001cd565b828054620000c69062000197565b90600052602060002090601f016020900481019282620000ea576000855562000136565b82601f106200010557805160ff191683800117855562000136565b8280016001018555821562000136579182015b828111156200013557825182559160200191906001019062000118565b5b50905062000145919062000149565b5090565b5b80821115620001645760008160009055506001016200014a565b5090565b7f4e487b7100000000000000000000000000000000000000000000000000000000600052602260045260246000fd5b60006002820490506001821680620001b057607f821691505b60208210811415620001c757620001c662000168565b5b50919050565b61347c80620001dd6000396000f3fe60806040526004361061012a5760003560e01c806342842e0e116100ab578063a22cb4651161006f578063a22cb46514610405578063b88d4fde1461042e578063c87b56dd14610457578063d7830ccb14610494578063e7152a5c146104d1578063e985e9c5146104fa5761012a565b806342842e0e1461030e5780636352211e1461033757806370a082311461037457806395d89b41146103b15780639697c0a1146103dc5761012a565b806315e0afa5116100f257806315e0afa51461023a5780631967fd981461026357806323b872dd146102a05780632f1c34ef146102c9578063316a4361146102e55761012a565b806301ffc9a71461012f5780630564b1301461016c57806306fdde03146101a9578063081812fc146101d4578063095ea7b314610211575b600080fd5b34801561013b57600080fd5b5061015660048036038101906101519190611ef0565b610537565b6040516101639190611f38565b60405180910390f35b34801561017857600080fd5b50610193600480360381019061018e9190611f89565b610619565b6040516101a09190611fc5565b60405180910390f35b3480156101b557600080fd5b506101be610631565b6040516101cb9190612079565b60405180910390f35b3480156101e057600080fd5b506101fb60048036038101906101f69190611f89565b6106c3565b60405161020891906120dc565b60405180910390f35b34801561021d57600080fd5b5061023860048036038101906102339190612123565b610748565b005b34801561024657600080fd5b50610261600480360381019061025c9190612163565b610860565b005b34801561026f57600080fd5b5061028a60048036038101906102859190611f89565b61094a565b6040516102979190612079565b60405180910390f35b3480156102ac57600080fd5b506102c760048036038101906102c291906121a3565b6109f0565b005b6102e360048036038101906102de9190611f89565b610a50565b005b3480156102f157600080fd5b5061030c60048036038101906103079190612163565b610b53565b005b34801561031a57600080fd5b50610335600480360381019061033091906121a3565b610be5565b005b34801561034357600080fd5b5061035e60048036038101906103599190611f89565b610c05565b60405161036b91906120dc565b60405180910390f35b34801561038057600080fd5b5061039b600480360381019061039691906121f6565b610cb7565b6040516103a89190611fc5565b60405180910390f35b3480156103bd57600080fd5b506103c6610d6f565b6040516103d39190612079565b60405180910390f35b3480156103e857600080fd5b5061040360048036038101906103fe9190612358565b610e01565b005b34801561041157600080fd5b5061042c600480360381019061042791906123e0565b610e57565b005b34801561043a57600080fd5b50610455600480360381019061045091906124c1565b610e6d565b005b34801561046357600080fd5b5061047e60048036038101906104799190611f89565b610ecf565b60405161048b9190612079565b60405180910390f35b3480156104a057600080fd5b506104bb60048036038101906104b69190611f89565b610f76565b6040516104c89190612079565b60405180910390f35b3480156104dd57600080fd5b506104f860048036038101906104f39190612123565b61101e565b005b34801561050657600080fd5b50610521600480360381019061051c9190612544565b6110a3565b60405161052e9190611f38565b60405180910390f35b60007f80ac58cd000000000000000000000000000000000000000000000000000000007bffffffffffffffffffffffffffffffffffffffffffffffffffffffff1916827bffffffffffffffffffffffffffffffffffffffffffffffffffffffff1916148061060257507f5b5e139f000000000000000000000000000000000000000000000000000000007bffffffffffffffffffffffffffffffffffffffffffffffffffffffff1916827bffffffffffffffffffffffffffffffffffffffffffffffffffffffff1916145b80610612575061061182611137565b5b9050919050565b60076020528060005260406000206000915090505481565b606060008054610640906125b3565b80601f016020809104026020016040519081016040528092919081815260200182805461066c906125b3565b80156106b95780601f1061068e576101008083540402835291602001916106b9565b820191906000526020600020905b81548152906001019060200180831161069c57829003601f168201915b5050505050905090565b60006106ce826111a1565b61070d576040517f08c379a000000000000000000000000000000000000000000000000000000000815260040161070490612657565b60405180910390fd5b6004600083815260200190815260200160002060009054906101000a900473ffffffffffffffffffffffffffffffffffffffff169050919050565b600061075382610c05565b90508073ffffffffffffffffffffffffffffffffffffffff168373ffffffffffffffffffffffffffffffffffffffff1614156107c4576040517f08c379a00000000000000000000000000000000000000000000000000000000081526004016107bb906126e9565b60405180910390fd5b8073ffffffffffffffffffffffffffffffffffffffff166107e361120d565b73ffffffffffffffffffffffffffffffffffffffff16148061081257506108118161080c61120d565b6110a3565b5b610851576040517f08c379a00000000000000000000000000000000000000000000000000000000081526004016108489061277b565b60405180910390fd5b61085b8383611215565b505050565b3373ffffffffffffffffffffffffffffffffffffffff1661088083610c05565b73ffffffffffffffffffffffffffffffffffffffff1614806108d557503373ffffffffffffffffffffffffffffffffffffffff166108bd82610c05565b73ffffffffffffffffffffffffffffffffffffffff16145b610914576040517f08c379a000000000000000000000000000000000000000000000000000000000815260040161090b9061280d565b60405180910390fd5b600061091f83610c05565b9050600061092c83610c05565b90506109398282866109f0565b6109448183856109f0565b50505050565b600660205280600052604060002060009150905080600001805461096d906125b3565b80601f0160208091040260200160405190810160405280929190818152602001828054610999906125b3565b80156109e65780601f106109bb576101008083540402835291602001916109e6565b820191906000526020600020905b8154815290600101906020018083116109c957829003601f168201915b5050505050905081565b610a016109fb61120d565b826112ce565b610a40576040517f08c379a0000000000000000000000000000000000000000000000000000000008152600401610a379061289f565b60405180910390fd5b610a4b8383836113ac565b505050565b6000600760008381526020019081526020016000205411610aa6576040517f08c379a0000000000000000000000000000000000000000000000000000000008152600401610a9d9061290b565b60405180910390fd5b6000600760008381526020019081526020016000205490506000610ac983610c05565b9050813411610b0d576040517f08c379a0000000000000000000000000000000000000000000000000000000008152600401610b0490612977565b60405180910390fd5b610b188133856109f0565b6000610b2382611613565b9050610b2f818461161d565b82341115610b4d57610b4c338434610b4791906129c6565b61161d565b5b50505050565b3373ffffffffffffffffffffffffffffffffffffffff16610b7383610c05565b73ffffffffffffffffffffffffffffffffffffffff1614610bc9576040517f08c379a0000000000000000000000000000000000000000000000000000000008152600401610bc090612a6c565b60405180910390fd5b8060076000848152602001908152602001600020819055505050565b610c0083838360405180602001604052806000815250610e6d565b505050565b6000806002600084815260200190815260200160002060009054906101000a900473ffffffffffffffffffffffffffffffffffffffff169050600073ffffffffffffffffffffffffffffffffffffffff168173ffffffffffffffffffffffffffffffffffffffff161415610cae576040517f08c379a0000000000000000000000000000000000000000000000000000000008152600401610ca590612afe565b60405180910390fd5b80915050919050565b60008073ffffffffffffffffffffffffffffffffffffffff168273ffffffffffffffffffffffffffffffffffffffff161415610d28576040517f08c379a0000000000000000000000000000000000000000000000000000000008152600401610d1f90612b90565b60405180910390fd5b600360008373ffffffffffffffffffffffffffffffffffffffff1673ffffffffffffffffffffffffffffffffffffffff168152602001908152602001600020549050919050565b606060018054610d7e906125b3565b80601f0160208091040260200160405190810160405280929190818152602001828054610daa906125b3565b8015610df75780601f10610dcc57610100808354040283529160200191610df7565b820191906000526020600020905b815481529060010190602001808311610dda57829003601f168201915b5050505050905090565b6000604051806020016040528084815250905080600660008481526020019081526020016000206000820151816000019080519060200190610e44929190611de1565b50905050610e523383611711565b505050565b610e69610e6261120d565b83836118eb565b5050565b610e7e610e7861120d565b836112ce565b610ebd576040517f08c379a0000000000000000000000000000000000000000000000000000000008152600401610eb49061289f565b60405180910390fd5b610ec984848484611a58565b50505050565b6060610eda826111a1565b610f19576040517f08c379a0000000000000000000000000000000000000000000000000000000008152600401610f1090612c22565b60405180910390fd5b6000610f23611ab4565b90506000815111610f435760405180602001604052806000815250610f6e565b80610f4d84611acb565b604051602001610f5e929190612c7e565b6040516020818303038152906040525b915050919050565b6060600660008381526020019081526020016000206000018054610f99906125b3565b80601f0160208091040260200160405190810160405280929190818152602001828054610fc5906125b3565b80156110125780601f10610fe757610100808354040283529160200191611012565b820191906000526020600020905b815481529060010190602001808311610ff557829003601f168201915b50505050509050919050565b3373ffffffffffffffffffffffffffffffffffffffff1661103e82610c05565b73ffffffffffffffffffffffffffffffffffffffff1614611094576040517f08c379a000000000000000000000000000000000000000000000000000000000815260040161108b90612d14565b60405180910390fd5b61109f3383836109f0565b5050565b6000600560008473ffffffffffffffffffffffffffffffffffffffff1673ffffffffffffffffffffffffffffffffffffffff16815260200190815260200160002060008373ffffffffffffffffffffffffffffffffffffffff1673ffffffffffffffffffffffffffffffffffffffff16815260200190815260200160002060009054906101000a900460ff16905092915050565b60007f01ffc9a7000000000000000000000000000000000000000000000000000000007bffffffffffffffffffffffffffffffffffffffffffffffffffffffff1916827bffffffffffffffffffffffffffffffffffffffffffffffffffffffff1916149050919050565b60008073ffffffffffffffffffffffffffffffffffffffff166002600084815260200190815260200160002060009054906101000a900473ffffffffffffffffffffffffffffffffffffffff1673ffffffffffffffffffffffffffffffffffffffff1614159050919050565b600033905090565b816004600083815260200190815260200160002060006101000a81548173ffffffffffffffffffffffffffffffffffffffff021916908373ffffffffffffffffffffffffffffffffffffffff160217905550808273ffffffffffffffffffffffffffffffffffffffff1661128883610c05565b73ffffffffffffffffffffffffffffffffffffffff167f8c5be1e5ebec7d5bd14f71427d1e84f3dd0314c0f7b2291e5b200ac8c7c3b92560405160405180910390a45050565b60006112d9826111a1565b611318576040517f08c379a000000000000000000000000000000000000000000000000000000000815260040161130f90612da6565b60405180910390fd5b600061132383610c05565b90508073ffffffffffffffffffffffffffffffffffffffff168473ffffffffffffffffffffffffffffffffffffffff16148061139257508373ffffffffffffffffffffffffffffffffffffffff1661137a846106c3565b73ffffffffffffffffffffffffffffffffffffffff16145b806113a357506113a281856110a3565b5b91505092915050565b8273ffffffffffffffffffffffffffffffffffffffff166113cc82610c05565b73ffffffffffffffffffffffffffffffffffffffff1614611422576040517f08c379a000000000000000000000000000000000000000000000000000000000815260040161141990612e38565b60405180910390fd5b600073ffffffffffffffffffffffffffffffffffffffff168273ffffffffffffffffffffffffffffffffffffffff161415611492576040517f08c379a000000000000000000000000000000000000000000000000000000000815260040161148990612eca565b60405180910390fd5b61149d838383611c2c565b6114a8600082611215565b6001600360008573ffffffffffffffffffffffffffffffffffffffff1673ffffffffffffffffffffffffffffffffffffffff16815260200190815260200160002060008282546114f891906129c6565b925050819055506001600360008473ffffffffffffffffffffffffffffffffffffffff1673ffffffffffffffffffffffffffffffffffffffff168152602001908152602001600020600082825461154f9190612eea565b92505081905550816002600083815260200190815260200160002060006101000a81548173ffffffffffffffffffffffffffffffffffffffff021916908373ffffffffffffffffffffffffffffffffffffffff160217905550808273ffffffffffffffffffffffffffffffffffffffff168473ffffffffffffffffffffffffffffffffffffffff167fddf252ad1be2c89b69c2b068fc378daa952ba7f163c4a11628f55a4df523b3ef60405160405180910390a461160e838383611c31565b505050565b6000819050919050565b80471015611660576040517f08c379a000000000000000000000000000000000000000000000000000000000815260040161165790612f8c565b60405180910390fd5b60008273ffffffffffffffffffffffffffffffffffffffff168260405161168690612fdd565b60006040518083038185875af1925050503d80600081146116c3576040519150601f19603f3d011682016040523d82523d6000602084013e6116c8565b606091505b505090508061170c576040517f08c379a000000000000000000000000000000000000000000000000000000000815260040161170390613064565b60405180910390fd5b505050565b600073ffffffffffffffffffffffffffffffffffffffff168273ffffffffffffffffffffffffffffffffffffffff161415611781576040517f08c379a0000000000000000000000000000000000000000000000000000000008152600401611778906130d0565b60405180910390fd5b61178a816111a1565b156117ca576040517f08c379a00000000000000000000000000000000000000000000000000000000081526004016117c19061313c565b60405180910390fd5b6117d660008383611c2c565b6001600360008473ffffffffffffffffffffffffffffffffffffffff1673ffffffffffffffffffffffffffffffffffffffff16815260200190815260200160002060008282546118269190612eea565b92505081905550816002600083815260200190815260200160002060006101000a81548173ffffffffffffffffffffffffffffffffffffffff021916908373ffffffffffffffffffffffffffffffffffffffff160217905550808273ffffffffffffffffffffffffffffffffffffffff16600073ffffffffffffffffffffffffffffffffffffffff167fddf252ad1be2c89b69c2b068fc378daa952ba7f163c4a11628f55a4df523b3ef60405160405180910390a46118e760008383611c31565b5050565b8173ffffffffffffffffffffffffffffffffffffffff168373ffffffffffffffffffffffffffffffffffffffff16141561195a576040517f08c379a0000000000000000000000000000000000000000000000000000000008152600401611951906131a8565b60405180910390fd5b80600560008573ffffffffffffffffffffffffffffffffffffffff1673ffffffffffffffffffffffffffffffffffffffff16815260200190815260200160002060008473ffffffffffffffffffffffffffffffffffffffff1673ffffffffffffffffffffffffffffffffffffffff16815260200190815260200160002060006101000a81548160ff0219169083151502179055508173ffffffffffffffffffffffffffffffffffffffff168373ffffffffffffffffffffffffffffffffffffffff167f17307eab39ab6107e8899845ad3d59bd9653f200f220920489ca2b5937696c3183604051611a4b9190611f38565b60405180910390a3505050565b611a638484846113ac565b611a6f84848484611c36565b611aae576040517f08c379a0000000000000000000000000000000000000000000000000000000008152600401611aa59061323a565b60405180910390fd5b50505050565b606060405180602001604052806000815250905090565b60606000821415611b13576040518060400160405280600181526020017f30000000000000000000000000000000000000000000000000000000000000008152509050611c27565b600082905060005b60008214611b45578080611b2e9061325a565b915050600a82611b3e91906132d2565b9150611b1b565b60008167ffffffffffffffff811115611b6157611b6061222d565b5b6040519080825280601f01601f191660200182016040528015611b935781602001600182028036833780820191505090505b5090505b60008514611c2057600182611bac91906129c6565b9150600a85611bbb9190613303565b6030611bc79190612eea565b60f81b818381518110611bdd57611bdc613334565b5b60200101907effffffffffffffffffffffffffffffffffffffffffffffffffffffffffffff1916908160001a905350600a85611c1991906132d2565b9450611b97565b8093505050505b919050565b505050565b505050565b6000611c578473ffffffffffffffffffffffffffffffffffffffff16611dbe565b15611db1578373ffffffffffffffffffffffffffffffffffffffff1663150b7a02611c8061120d565b8786866040518563ffffffff1660e01b8152600401611ca294939291906133b8565b6020604051808303816000875af1925050508015611cde57506040513d601f19601f82011682018060405250810190611cdb9190613419565b60015b611d61573d8060008114611d0e576040519150601f19603f3d011682016040523d82523d6000602084013e611d13565b606091505b50600081511415611d59576040517f08c379a0000000000000000000000000000000000000000000000000000000008152600401611d509061323a565b60405180910390fd5b805181602001fd5b63150b7a0260e01b7bffffffffffffffffffffffffffffffffffffffffffffffffffffffff1916817bffffffffffffffffffffffffffffffffffffffffffffffffffffffff191614915050611db6565b600190505b949350505050565b6000808273ffffffffffffffffffffffffffffffffffffffff163b119050919050565b828054611ded906125b3565b90600052602060002090601f016020900481019282611e0f5760008555611e56565b82601f10611e2857805160ff1916838001178555611e56565b82800160010185558215611e56579182015b82811115611e55578251825591602001919060010190611e3a565b5b509050611e639190611e67565b5090565b5b80821115611e80576000816000905550600101611e68565b5090565b6000604051905090565b600080fd5b600080fd5b60007fffffffff0000000000000000000000000000000000000000000000000000000082169050919050565b611ecd81611e98565b8114611ed857600080fd5b50565b600081359050611eea81611ec4565b92915050565b600060208284031215611f0657611f05611e8e565b5b6000611f1484828501611edb565b91505092915050565b60008115159050919050565b611f3281611f1d565b82525050565b6000602082019050611f4d6000830184611f29565b92915050565b6000819050919050565b611f6681611f53565b8114611f7157600080fd5b50565b600081359050611f8381611f5d565b92915050565b600060208284031215611f9f57611f9e611e8e565b5b6000611fad84828501611f74565b91505092915050565b611fbf81611f53565b82525050565b6000602082019050611fda6000830184611fb6565b92915050565b600081519050919050565b600082825260208201905092915050565b60005b8381101561201a578082015181840152602081019050611fff565b83811115612029576000848401525b50505050565b6000601f19601f8301169050919050565b600061204b82611fe0565b6120558185611feb565b9350612065818560208601611ffc565b61206e8161202f565b840191505092915050565b600060208201905081810360008301526120938184612040565b905092915050565b600073ffffffffffffffffffffffffffffffffffffffff82169050919050565b60006120c68261209b565b9050919050565b6120d6816120bb565b82525050565b60006020820190506120f160008301846120cd565b92915050565b612100816120bb565b811461210b57600080fd5b50565b60008135905061211d816120f7565b92915050565b6000806040838503121561213a57612139611e8e565b5b60006121488582860161210e565b925050602061215985828601611f74565b9150509250929050565b6000806040838503121561217a57612179611e8e565b5b600061218885828601611f74565b925050602061219985828601611f74565b9150509250929050565b6000806000606084860312156121bc576121bb611e8e565b5b60006121ca8682870161210e565b93505060206121db8682870161210e565b92505060406121ec86828701611f74565b9150509250925092565b60006020828403121561220c5761220b611e8e565b5b600061221a8482850161210e565b91505092915050565b600080fd5b600080fd5b7f4e487b7100000000000000000000000000000000000000000000000000000000600052604160045260246000fd5b6122658261202f565b810181811067ffffffffffffffff821117156122845761228361222d565b5b80604052505050565b6000612297611e84565b90506122a3828261225c565b919050565b600067ffffffffffffffff8211156122c3576122c261222d565b5b6122cc8261202f565b9050602081019050919050565b82818337600083830152505050565b60006122fb6122f6846122a8565b61228d565b90508281526020810184848401111561231757612316612228565b5b6123228482856122d9565b509392505050565b600082601f83011261233f5761233e612223565b5b813561234f8482602086016122e8565b91505092915050565b6000806040838503121561236f5761236e611e8e565b5b600083013567ffffffffffffffff81111561238d5761238c611e93565b5b6123998582860161232a565b92505060206123aa85828601611f74565b9150509250929050565b6123bd81611f1d565b81146123c857600080fd5b50565b6000813590506123da816123b4565b92915050565b600080604083850312156123f7576123f6611e8e565b5b60006124058582860161210e565b9250506020612416858286016123cb565b9150509250929050565b600067ffffffffffffffff82111561243b5761243a61222d565b5b6124448261202f565b9050602081019050919050565b600061246461245f84612420565b61228d565b9050828152602081018484840111156124805761247f612228565b5b61248b8482856122d9565b509392505050565b600082601f8301126124a8576124a7612223565b5b81356124b8848260208601612451565b91505092915050565b600080600080608085870312156124db576124da611e8e565b5b60006124e98782880161210e565b94505060206124fa8782880161210e565b935050604061250b87828801611f74565b925050606085013567ffffffffffffffff81111561252c5761252b611e93565b5b61253887828801612493565b91505092959194509250565b6000806040838503121561255b5761255a611e8e565b5b60006125698582860161210e565b925050602061257a8582860161210e565b9150509250929050565b7f4e487b7100000000000000000000000000000000000000000000000000000000600052602260045260246000fd5b600060028204905060018216806125cb57607f821691505b602082108114156125df576125de612584565b5b50919050565b7f4552433732313a20617070726f76656420717565727920666f72206e6f6e657860008201527f697374656e7420746f6b656e0000000000000000000000000000000000000000602082015250565b6000612641602c83611feb565b915061264c826125e5565b604082019050919050565b6000602082019050818103600083015261267081612634565b9050919050565b7f4552433732313a20617070726f76616c20746f2063757272656e74206f776e6560008201527f7200000000000000000000000000000000000000000000000000000000000000602082015250565b60006126d3602183611feb565b91506126de82612677565b604082019050919050565b60006020820190508181036000830152612702816126c6565b9050919050565b7f4552433732313a20617070726f76652063616c6c6572206973206e6f74206f7760008201527f6e6572206e6f7220617070726f76656420666f7220616c6c0000000000000000602082015250565b6000612765603883611feb565b915061277082612709565b604082019050919050565b6000602082019050818103600083015261279481612758565b9050919050565b7f596f752063616e27742065786368616e676520746865205374617220796f752060008201527f646f6e2774206f776e0000000000000000000000000000000000000000000000602082015250565b60006127f7602983611feb565b91506128028261279b565b604082019050919050565b60006020820190508181036000830152612826816127ea565b9050919050565b7f4552433732313a207472616e736665722063616c6c6572206973206e6f74206f60008201527f776e6572206e6f7220617070726f766564000000000000000000000000000000602082015250565b6000612889603183611feb565b91506128948261282d565b604082019050919050565b600060208201905081810360008301526128b88161287c565b9050919050565b7f54686520537461722073686f756c6420626520757020666f722073616c650000600082015250565b60006128f5601e83611feb565b9150612900826128bf565b602082019050919050565b60006020820190508181036000830152612924816128e8565b9050919050565b7f596f75206e65656420746f206861766520656e6f756768204574686572000000600082015250565b6000612961601d83611feb565b915061296c8261292b565b602082019050919050565b6000602082019050818103600083015261299081612954565b9050919050565b7f4e487b7100000000000000000000000000000000000000000000000000000000600052601160045260246000fd5b60006129d182611f53565b91506129dc83611f53565b9250828210156129ef576129ee612997565b5b828203905092915050565b7f596f752063616e27742073616c6520746865205374617220796f7520646f6e2760008201527f74206f776e656400000000000000000000000000000000000000000000000000602082015250565b6000612a56602783611feb565b9150612a61826129fa565b604082019050919050565b60006020820190508181036000830152612a8581612a49565b9050919050565b7f4552433732313a206f776e657220717565727920666f72206e6f6e657869737460008201527f656e7420746f6b656e0000000000000000000000000000000000000000000000602082015250565b6000612ae8602983611feb565b9150612af382612a8c565b604082019050919050565b60006020820190508181036000830152612b1781612adb565b9050919050565b7f4552433732313a2062616c616e636520717565727920666f7220746865207a6560008201527f726f206164647265737300000000000000000000000000000000000000000000602082015250565b6000612b7a602a83611feb565b9150612b8582612b1e565b604082019050919050565b60006020820190508181036000830152612ba981612b6d565b9050919050565b7f4552433732314d657461646174613a2055524920717565727920666f72206e6f60008201527f6e6578697374656e7420746f6b656e0000000000000000000000000000000000602082015250565b6000612c0c602f83611feb565b9150612c1782612bb0565b604082019050919050565b60006020820190508181036000830152612c3b81612bff565b9050919050565b600081905092915050565b6000612c5882611fe0565b612c628185612c42565b9350612c72818560208601611ffc565b80840191505092915050565b6000612c8a8285612c4d565b9150612c968284612c4d565b91508190509392505050565b7f596f752063616e2774207472616e7366657220746865205374617220796f752060008201527f646f6e2774206f776e0000000000000000000000000000000000000000000000602082015250565b6000612cfe602983611feb565b9150612d0982612ca2565b604082019050919050565b60006020820190508181036000830152612d2d81612cf1565b9050919050565b7f4552433732313a206f70657261746f7220717565727920666f72206e6f6e657860008201527f697374656e7420746f6b656e0000000000000000000000000000000000000000602082015250565b6000612d90602c83611feb565b9150612d9b82612d34565b604082019050919050565b60006020820190508181036000830152612dbf81612d83565b9050919050565b7f4552433732313a207472616e736665722066726f6d20696e636f72726563742060008201527f6f776e6572000000000000000000000000000000000000000000000000000000602082015250565b6000612e22602583611feb565b9150612e2d82612dc6565b604082019050919050565b60006020820190508181036000830152612e5181612e15565b9050919050565b7f4552433732313a207472616e7366657220746f20746865207a65726f2061646460008201527f7265737300000000000000000000000000000000000000000000000000000000602082015250565b6000612eb4602483611feb565b9150612ebf82612e58565b604082019050919050565b60006020820190508181036000830152612ee381612ea7565b9050919050565b6000612ef582611f53565b9150612f0083611f53565b9250827fffffffffffffffffffffffffffffffffffffffffffffffffffffffffffffffff03821115612f3557612f34612997565b5b828201905092915050565b7f416464726573733a20696e73756666696369656e742062616c616e6365000000600082015250565b6000612f76601d83611feb565b9150612f8182612f40565b602082019050919050565b60006020820190508181036000830152612fa581612f69565b9050919050565b600081905092915050565b50565b6000612fc7600083612fac565b9150612fd282612fb7565b600082019050919050565b6000612fe882612fba565b9150819050919050565b7f416464726573733a20756e61626c6520746f2073656e642076616c75652c207260008201527f6563697069656e74206d61792068617665207265766572746564000000000000602082015250565b600061304e603a83611feb565b915061305982612ff2565b604082019050919050565b6000602082019050818103600083015261307d81613041565b9050919050565b7f4552433732313a206d696e7420746f20746865207a65726f2061646472657373600082015250565b60006130ba602083611feb565b91506130c582613084565b602082019050919050565b600060208201905081810360008301526130e9816130ad565b9050919050565b7f4552433732313a20746f6b656e20616c7265616479206d696e74656400000000600082015250565b6000613126601c83611feb565b9150613131826130f0565b602082019050919050565b6000602082019050818103600083015261315581613119565b9050919050565b7f4552433732313a20617070726f766520746f2063616c6c657200000000000000600082015250565b6000613192601983611feb565b915061319d8261315c565b602082019050919050565b600060208201905081810360008301526131c181613185565b9050919050565b7f4552433732313a207472616e7366657220746f206e6f6e20455243373231526560008201527f63656976657220696d706c656d656e7465720000000000000000000000000000602082015250565b6000613224603283611feb565b915061322f826131c8565b604082019050919050565b6000602082019050818103600083015261325381613217565b9050919050565b600061326582611f53565b91507fffffffffffffffffffffffffffffffffffffffffffffffffffffffffffffffff82141561329857613297612997565b5b600182019050919050565b7f4e487b7100000000000000000000000000000000000000000000000000000000600052601260045260246000fd5b60006132dd82611f53565b91506132e883611f53565b9250826132f8576132f76132a3565b5b828204905092915050565b600061330e82611f53565b915061331983611f53565b925082613329576133286132a3565b5b828206905092915050565b7f4e487b7100000000000000000000000000000000000000000000000000000000600052603260045260246000fd5b600081519050919050565b600082825260208201905092915050565b600061338a82613363565b613394818561336e565b93506133a4818560208601611ffc565b6133ad8161202f565b840191505092915050565b60006080820190506133cd60008301876120cd565b6133da60208301866120cd565b6133e76040830185611fb6565b81810360608301526133f9818461337f565b905095945050505050565b60008151905061341381611ec4565b92915050565b60006020828403121561342f5761342e611e8e565b5b600061343d84828501613404565b9150509291505056fea264697066735822122049dc6db08acef24c3c79d57da4099ace3d402372c27d998bc006840e362b29b764736f6c634300080c0033",
  "immutableReferences": {},
  "source": "// SPDX-License-Identifier: MIT\npragma solidity >=0.4.24;\n\n//Importing openzeppelin-solidity ERC-721 implemented Standard\nimport \"../app/node_modules/@openzeppelin/contracts/token/ERC721/ERC721.sol\";\nimport \"../app/node_modules/@openzeppelin/contracts/utils/Address.sol\";\n\n// StarNotary Contract declaration inheritance the ERC721 openzeppelin implementation\ncontract StarNotary is ERC721 {\n\n    // Star data\n    struct Star {\n        string name;\n    }\n\n    // Implement Task 1 Add a name and symbol properties\n    // name: Is a short name to your token\n    // symbol: Is a short string like 'USD' -> 'American Dollar'\n    constructor() ERC721(\"Starry Coin\", \"STR\") {}\n\n\n    // mapping the Star with the Owner Address\n    mapping(uint256 => Star) public tokenIdToStarInfo;\n    // mapping the TokenId and price\n    mapping(uint256 => uint256) public starsForSale;\n\n    \n    // Create Star using the Struct\n    function createStar(string memory _name, uint256 _tokenId) public { // Passing the name and tokenId as a parameters\n        Star memory newStar = Star(_name); // Star is an struct so we are creating a new Star\n        tokenIdToStarInfo[_tokenId] = newStar; // Creating in memory the Star -> tokenId mapping\n        _mint(msg.sender, _tokenId); // _mint assign the the star with _tokenId to the sender address (ownership)\n    }\n\n    // Putting an Star for sale (Adding the star tokenid into the mapping starsForSale, first verify that the sender is the owner)\n    function putStarUpForSale(uint256 _tokenId, uint256 _price) public {\n        require(ownerOf(_tokenId) == msg.sender, \"You can't sale the Star you don't owned\");\n        starsForSale[_tokenId] = _price;\n    }\n\n\n    // Function that allows you to convert an address into a payable address\n    function _make_payable(address x) internal pure returns (address payable) {\n        return payable(address(uint160(x)));\n    }\n\n    function buyStar(uint256 _tokenId) public  payable {\n        require(starsForSale[_tokenId] > 0, \"The Star should be up for sale\");\n        uint256 starCost = starsForSale[_tokenId];\n        address ownerAddress = ownerOf(_tokenId);\n        require(msg.value > starCost, \"You need to have enough Ether\");\n        transferFrom(ownerAddress, msg.sender, _tokenId); // We can't use _addTokenTo or_removeTokenFrom functions, now we have to use _transferFrom\n        address payable ownerAddressPayable = _make_payable(ownerAddress); // We need to make this conversion to be able to use transfer() function to transfer ethers\n\n        // transfer() method is no longer recommended using: https://consensys.net/diligence/blog/2019/09/stop-using-soliditys-transfer-now/\n        // ownerAddressPayable.transfer(starCost); \n        Address.sendValue(ownerAddressPayable, starCost);\n        if(msg.value > starCost) {\n            Address.sendValue(payable(msg.sender), msg.value - starCost);\n            // payable(msg.sender).transfer(msg.value - starCost);\n        }\n    }\n\n    // Implement Task 1 lookUptokenIdToStarInfo\n    function lookUptokenIdToStarInfo (uint _tokenId) public view returns (string memory) {\n        //1. You should return the Star saved in tokenIdToStarInfo mapping\n        return tokenIdToStarInfo[_tokenId].name;\n    }\n\n    // Implement Task 1 Exchange Stars function\n    function exchangeStars(uint256 _tokenId1, uint256 _tokenId2) public {\n        //1. Passing to star tokenId you will need to check if the owner of _tokenId1 or _tokenId2 is the sender\n        require(ownerOf(_tokenId1) == msg.sender || ownerOf(_tokenId2) == msg.sender, \"You can't exchange the Star you don't own\");\n        //2. You don't have to check for the price of the token (star)\n        //3. Get the owner of the two tokens (ownerOf(_tokenId1), ownerOf(_tokenId2)\n        address owner1Address = ownerOf(_tokenId1);\n        address owner2Address = ownerOf(_tokenId2);\n        //4. Use _transferFrom function to exchange the tokens.\n        transferFrom(owner1Address, owner2Address, _tokenId1);\n        transferFrom(owner2Address, owner1Address, _tokenId2);\n    }\n\n    // Implement Task 1 Transfer Stars\n    function transferStar(address _to1, uint256 _tokenId) public {\n        //1. Check if the sender is the ownerOf(_tokenId)\n        require(ownerOf(_tokenId) == msg.sender , \"You can't transfer the Star you don't own\");\n        //2. Use the transferFrom(from, to, tokenId); function to transfer the Star\n        transferFrom(msg.sender, _to1, _tokenId);\n    }\n\n}\n\n\n\n\n",
  "sourcePath": "/Users/choco/Downloads/_BlockchainDeveloper/_Assignment/Project2_StarNotary/New/contracts/StartNotary.sol",
  "compiler": {
    "name": "solc",
    "version": "0.8.12+commit.f00d7308.Emscripten.clang"
  },
  "schemaVersion": "3.4.16",
  "updatedAt": "2024-05-26T09:20:54.308Z",
  "networkType": "ethereum",
  "devdoc": {
    "kind": "dev",
    "methods": {
      "approve(address,uint256)": {
        "details": "See {IERC721-approve}."
      },
      "balanceOf(address)": {
        "details": "See {IERC721-balanceOf}."
      },
      "getApproved(uint256)": {
        "details": "See {IERC721-getApproved}."
      },
      "isApprovedForAll(address,address)": {
        "details": "See {IERC721-isApprovedForAll}."
      },
      "name()": {
        "details": "See {IERC721Metadata-name}."
      },
      "ownerOf(uint256)": {
        "details": "See {IERC721-ownerOf}."
      },
      "safeTransferFrom(address,address,uint256)": {
        "details": "See {IERC721-safeTransferFrom}."
      },
      "safeTransferFrom(address,address,uint256,bytes)": {
        "details": "See {IERC721-safeTransferFrom}."
      },
      "setApprovalForAll(address,bool)": {
        "details": "See {IERC721-setApprovalForAll}."
      },
      "supportsInterface(bytes4)": {
        "details": "See {IERC165-supportsInterface}."
      },
      "symbol()": {
        "details": "See {IERC721Metadata-symbol}."
      },
      "tokenURI(uint256)": {
        "details": "See {IERC721Metadata-tokenURI}."
      },
      "transferFrom(address,address,uint256)": {
        "details": "See {IERC721-transferFrom}."
      }
    },
    "version": 1
  },
  "userdoc": {
    "kind": "user",
    "methods": {},
    "version": 1
  }
}